:020000040800F2
:10000000C017002001010008671600089F150008AE
:1000100065160008E7010008892D000800000000AF
:10002000000000000000000000000000451B000868
:100030000B05000800000000EB190008471B000832
:100040001B0100081B0100081B0100081B01000820
:100050001B0100081B0100081B0100081B01000810
:100060001B0100081B0100081B0100081B01000800
:10007000F90400081B010008090500081B0100081D
:100080001B0100081B0100081B0100081B010008E0
:10009000212D00081B0100081B0100081B0100089E
:1000A0001B0100081B0100081B0100081B010008C0
:1000B0001B010008FD1B00081B0100081B010008B4
:1000C0001B0100081B0100081B0100081B010008A0
:1000D0001B010008FF1B00081B0100081B01000892
:1000E0001B0100081B0100081B010008DFF80CD0F1
:1000F00000F03CF800480047A92D0008C017002078
:100100000648804706480047FEE7FEE7FEE7FEE7B1
:10011000FEE7FEE7FEE7FEE7FEE7FEE7B51B0008A9
:10012000ED00000840EA01039B0703D009E008C97D
:10013000121F08C0042AFAD203E011F8013B00F8AC
:10014000013B521EF9D27047D2B201E000F8012BF8
:10015000491EFBD270470022F6E710B513460A4647
:1001600004461946FFF7F0FF204610BD064C074D28
:1001700006E0E06840F0010394E807009847103477
:10018000AC42F6D3FFF7B6FFB82F0008D82F00080F
:1001900070B58C1810F8015B15F0070301D110F849
:1001A000013B2A1106D110F8012B03E010F8016B76
:1001B00001F8016B5B1EF9D12B0705D40023521EF9
:1001C0000DD401F8013BFAE710F8013BCB1A921C61
:1001D00003E013F8015B01F8015B521EF9D5A1425F
:1001E000D8D3002070BDFEE7042822DD124A202863
:1001F00002D021281DD10BE0CB78086863F31F6083
:10020000106008791071487950718879907110E008
:10021000107808701088000A48701068000C887008
:100220001068000EC8701079087150794871907983
:1002300088710020704700005400002000207047A3
:1002400010B5124C00206060022001F0CFFB0022AC
:100250000F49104801F0A4FD0D490E48403901F046
:1002600099FD0B49FF20403902220870487001F5C2
:100270009860626002F0F5FD05490246803101F5A3
:10028000806001F033FC002010BD00003800002029
:10029000400B00208C0100202DE9F047044608782F
:1002A0008E4D10F07F00686045D08D4E4FF40059A0
:1002B00000224946304600F021FA207800275528D0
:1002C0007DD1686801287AD994F801C0854B4FF038
:1002D0000208BCF1060F52D2DFE80CF003050D2E28
:1002E0003246002200E001220121184600F006FA01
:1002F000C5F8048091E0042821D16088012240BA29
:1003000028801146184600F0F9F974490622103188
:10031000754802F0A6FD7449A86008446F4906229A
:10032000163102F09EFDE8602889704982B26E485D
:1003300001F0DCFB6F60CDE02F80C5E902876CE047
:100340006B48A77084F803800068010A217160710E
:10035000644808300068010AA171E071B068010AC0
:10036000217260720A2008E0032856D1A07800F0BC
:100370000700A07001F03AFB032068604DE00628FA
:100380004BD1D4F80200617900BA20F0FF00084395
:100390005749544F08390A1D3F1DBCF1240F68D03E
:1003A00018DCBCF1200F58D00ADCBCF1100F46D08D
:1003B000BCF1110F48D0BCF1120F22D14AE07DE010
:1003C000BCF1210F4CD0BCF1220F4CD0BCF1230F5B
:1003D00017D14BE0BCF1320F5CD009DCBCF1250F2A
:1003E0004AD0BCF1300F4BD0BCF1310F09D14CE0F9
:1003F000BCF1330F53D0BCF1340F55D0BCF1350FE5
:1004000057D04CF080016170010EA170010CE170B9
:10041000010A21716071686888B3A888214682B298
:10042000344801F0BDFC334801F0FAFC314801F0DA
:1004300095FC01224946304600F060F94AE02C491B
:1004400008310860081F03E0264910310860081FC2
:100450000068D9E73061F068D6E70A68024011E029
:100460001168014013E01968014015E03968014046
:1004700017E03168014019E0716801401BE029E094
:100480000A6802430A600868BEE711680143116008
:100490001068B9E71968014319601868B4E739684A
:1004A000014339603868AFE7316801433160306833
:1004B000AAE77168014371607068A5E7AF60A8881A
:1004C000214682B2084802F0CCFC024607490648A1
:1004D00001F00CFB0020BDE8F08700003800002090
:1004E00000100140000C0140C00F0020C00B002094
:1004F000080801408C01002002492020486001F0DA
:10050000A9BA00000000024070477047034D4FF445
:1005100000542146284600F0EDF8FAE700100140AB
:1005200031B500F0F1F8044600F0EEF80099001B38
:100530008842F9D338BD00002DE9F84FDFF890A1CB
:1005400000220AF1040B144601274FF00F090BF1AA
:10055000040E00BF0B6807FA04F52B40AB4274D1C0
:10056000DFF870C14E68A6EB0C0866452BD00DDC99
:10057000032E34D005DC36B3012E19D0022E2FD134
:100580001BE0112E16D0122E2AD119E0B8F5881FC3
:1005900019D006DCB8F5803F15D0B8F5801F1FD103
:1005A00011E0B8F5001F0ED0B8F5041F18D10AE00D
:1005B000CA6815E0CA68121D12E0CA6808320FE066
:1005C000CA680C320CE08A682AB1012A4FF008028E
:1005D00003D0456104E0042202E0056100E000224E
:1005E000FF2B01D8064601E000F104064FEA84051E
:1005F00001D9A5F12005D6F800C009FA05F82CEAC2
:10060000080C02FA05F54CEA050CC6F800C04D6866
:10061000ED0057D5304DAE6946F00106AE61AD69CB
:1006200024F0030605F0010500952C4D06EB050CA2
:10063000DCF80850A6074FEA167809FA08F6B54321
:10064000274EB04202D1002610E03BE0254EB042DA
:1006500001D101260AE0244EB04201D1022605E074
:10066000224EB04201D1032600E0042606FA08F625
:100670002E43CCF808604D68DAF80060ED0355466B
:1006800001D51E4300E09E432E604D68DBF80060FC
:10069000AD035D4601D51E4300E09E432E604D68CC
:1006A000DEF80060ED02754601D51E4300E09E4372
:1006B0002E604D68AD020E4D2E6801D51E4300E040
:1006C0009E432E60641C102CFFF444AFBDE8F88FED
:1006D0000004014000001110001002400000014021
:1006E00000080140000C01400010014000140140CE
:1006F0000C040140C2684A40C26070470AB10161FF
:1007000070470904FBE700000148006870470000DB
:100710006C00002002480168491C0160704700001D
:100720006C000020074810B5016841F0100101601D
:10073000032000F047F8002000F006F800F015F85C
:10074000002010BD0020024010B5044600F00AFC55
:100750004FF47A71B0FBF1F000F00DFF002221465A
:10076000501E00F00FF8002010BD704700F01F026F
:10077000012191404009800000F1E020C0F8001103
:1007800070470000F0B40E4B1B680C46C3F3022305
:10079000C3F10705042D00D90425191D072901D22D
:1007A000002300E0DB1E012606FA05F1491E214068
:1007B00099409E40761E16403143F0BC00F054BF75
:1007C0000CED00E0064900F0070208684FF6FF0351
:1007D000184040EA0220034A1043086070470000B6
:1007E0000CED00E00000FA0510B50C0605D501F08F
:1007F0007F0100EB4110283003E000EB411000F5D1
:10080000027099B232B101228272C180190C018149
:10081000002010BD002282728180F9E7704700EB52
:100820004112D0F81C04D26B01F01CBC00EB411249
:10083000D0F81C04D2F81C2201F069BC10B50446A3
:100840000A460B0601F07F0004EB401101D5283168
:1008500001E001F502710870D009487094F8E803CE
:10086000012809D0012084F8E803206802F07AF812
:10087000002084F8E80310BD022010BD70B50A46C0
:100880000446090602F07F0003D504EB401128312D
:1008900003E004EB421101F5027100258D70087030
:1008A000D009487094F8E803012809D0012084F8A1
:1008B000E803206802F0FEF884F8E853002070BDD9
:1008C000022070BD01F07F0100EB4110B0F824025E
:1008D00080B2704770B504460D460E0601F07F00E9
:1008E00004EB401101D5283101E001F502710870D7
:1008F000E80948700A61CB7094F8E803012809D030
:10090000012084F8E803206801F0FCFE002084F850
:10091000E80370BD022070BD70B504460E4601F0BC
:100920007F0004EB401101F5077100252CC101F88F
:100930001F5C01F8200D94F8E80301280AD001207B
:1009400084F8E8037006206802F00EF984F8E85392
:10095000002070BD022070BD70B50D46044609062A
:1009600005F07F0003D504EB4011283103E004EBD0
:10097000451101F5027101228A700870E80948707A
:1009800094F8E803012807D084F8E823206802F0EF
:10099000C6F8680602D006E0022070BD04F57B713F
:1009A000206802F085F8002084F8E80370BD70B577
:1009B00004460E4601F07F0004EB40113C31002557
:1009C0002CC1012201F81F2C01F8200D94F8E80336
:1009D000012809D084F8E8237006206802F0C4F8E2
:1009E00084F8E853002070BD022070BD10B50446A5
:1009F000006802F09BF9000402D5204600F044FE96
:100A0000206802F093F940050CD5206830F8441FA7
:100A100021F480610180204600F0FCF8002120468E
:100A200000F00DF9206802F081F9400405D5206836
:100A300030F8441F21F480410180206802F076F9EB
:100A4000800405D5206830F8441F21F4005101804E
:100A5000206802F06BF9C00413D5206830F8401FFD
:100A600021F00401018021684FF43D40A1F84000CD
:100A7000204600F0DCF8206830F8441F21F4805153
:100A80000180206802F052F900051AD5206830F87C
:100A9000441F21F400610180206830F8401F41F0BC
:100AA00008010180206830F8401F41F004010180F6
:100AB000206802F03BF9C043C00402D5204600F094
:100AC000F2F8206802F032F9800508D5206830F885
:100AD000441F21F400710180204600F0ACF820682A
:100AE00002F024F9C00505D5206830F8441F21F430
:100AF0008071018010BD00002DE9F04186B0040036
:100B00004FF0000504D094F8E903002620B108E076
:100B1000012006B0BDE8F08184F8E863204600F0CB
:100B20004BF8032084F8E903206801F0BAFF04F1D0
:100B30001001142288466846FFF7F4FA94E80F0083
:100B400001F00EFF0021206802F003F95FF00107B9
:100B500004EB451080F8297000F8285F8581C67085
:100B6000066146616D1C86610F2DF1D35FF00000B8
:100B700004EB401181F8096281F80802888681F847
:100B80000B62C1F81862C1F81C62401CC1F82062F7
:100B90000F28EDD3142241466846FFF7C3FA94E8C4
:100BA0000F0001F075FF84F8246084F8E973206871
:100BB00001F06CFF0020ACE710B5144C86B0A069C2
:100BC00040F00400A061A069694600F004000490B0
:100BD0004FF4C050009000200190012002900320AB
:100BE00003900B48FFF7A8FCE06940F40000E061C7
:100BF000E069002200F40000049007211420FFF7B0
:100C0000C1FD1420FFF7B2FD06B010BD0010024078
:100C10000008014010B50446D0F81C04012101F081
:100C20003BFBD4F81C04BDE8104001F004BBD0F835
:100C30001C0401F01FBBD0F81C0401F021BB10B54F
:100C4000044690F8E80301280BD0012084F8E8035B
:100C500084F82410206802F07EF8002084F8E8036D
:100C600010BD022010BDD0F81C2400F57B71104689
:100C700001F01CBB10B5044690F8E803012810D021
:100C8000012084F8E80301462046FFF7C7FD2068ED
:100C900001F0FAFE206802F03CF8002084F8E80336
:100CA00010BD022010BDD0F81C0401F03ABB0000BA
:100CB0002DE9F84305460078454CC00774D0E0693B
:100CC00040F08050E061E069424E00F080500090BA
:100CD000306840F480703060FFF716FD074604E08E
:100CE000FFF712FDC01B642833D83068C005F7D564
:100CF000206A10F4407051D0A98801F440718142FB
:100D00004CD0206A0126310491FAA1F2B2FA82F2A3
:100D10009300314A20F440701344C3F8006491FA00
:100D2000A1F1B1FA81F102EB81010023C1F8003495
:100D30002062C00732D0FFF7E7FC074641F288394E
:100D40004FF0020808E000BFFFF7DEFCC11B494579
:100D500002D90320BDE8F88398FAA8F1B1FA81F12D
:100D600041F040014046B6EB511F01D121680BE034
:100D700090FAA0F1B1FA81F141F04001B0EB511FBE
:100D800001D1216A00E0616A98FAA8F0B0FA80F017
:100D900000F01F0206FA02F00142D5D0206A69680D
:100DA00020F44070084320622878800705D56068E9
:100DB000A96820F44040084360602878C00605D543
:100DC0006068E96820F48000084360600020C1E7A3
:100DD0000010024000700040000042422DE9F04740
:100DE000DFF8708105460E46D8F8000000F00700D5
:100DF000B0420CD2D8F8001021F007013143C8F8F6
:100E00000010D8F8000000F00700B04277D1287831
:100E1000514C800705D56068A96820F0F0000843B0
:100E200060602878C00759D06968012001290DD079
:100E3000022929D05FF0020393FAA3F2B2FA82F2F8
:100E400042F02002520904D0226803E04FF400333C
:100E5000F2E7626A93FAA3F3B3FA83F303F01F0392
:100E6000984002424BD0606820F003000843606065
:100E7000FFF74AFC6968074641F2883001290DD026
:100E80000229814617D025E04FF00073D4E700BF58
:100E9000FFF73AFCC11B494501D918E0814660685B
:100EA000C0F381000128F3D118E000BFFFF72CFC4C
:100EB000C11B49450BD86068C0F381000228F5D1F9
:100EC0000CE000BFFFF720FCC11B494502D90320FD
:100ED000BDE8F087606810F00C0FF3D1D8F800106F
:100EE000404601F00701B1420BD9016821F007012A
:100EF00031430160006800F00700B04201D00120DA
:100F0000E6E72878400705D56068E96820F4E060E6
:100F1000084360602878000706D56068296920F4D6
:100F2000605040EAC100606000F022F86168F02281
:100F300092FAA2F201F0F001B2FA82F2D140074A2D
:100F4000515CC840064908600020FFF7FDFB002007
:100F5000BEE700000020024000100240A82F000859
:100F600070000020014800687047000070000020F9
:100F700010B519A385B00FCB8DE80F001AA01B4B3D
:100F8000006804905A681A4802F00C0104291DD028
:100F900008291BD14FF4701494FAA4F402F47011D0
:100FA000B4FA84F4E140D2031DF8011010D55A6858
:100FB0004FF4003393FAA3F302F40032B3FA83F34D
:100FC000DA4004AB9A5CB0FBF2F0484305B010BDC8
:100FD00008484843FAE70000020304050607080929
:100FE0000A0B0C0D0E0F1010010200000010024041
:100FF00000127A0000093D002DE9F84F0446007800
:10100000F74DC0074FF0010625D068687704C0F39C
:101010008100012807D06868C0F3810002281BD135
:101020006868C00318D597FAA7F0B0FA80F040F0CE
:101030002000400901D0286800E0686A97FAA7F10B
:10104000B1FA81F101F01F0106FA01F108425ED008
:10105000606800287CD05AE06068B0F5803F0BD013
:1010600010B1B0F5A02F11D0286820F4803028608E
:10107000286820F4802002E0286840F4803028604E
:10108000606828B3FFF740FB80460BE0286840F417
:1010900080202860F0E700BFFFF736FBA0EB0800D8
:1010A000642871D897FAA7F0B0FA80F040F02000D9
:1010B000400901D0286800E0686A97FAA7F1B1FA00
:1010C00081F101F01F0106FA01F10842E4D01EE0AF
:1010D000FFF71AFB804605E0FFF716FBA0EB0800C0
:1010E0006428DED897FAA7F0B0FA80F040F020002C
:1010F000400901D0286800E0686A97FAA7F1B1FAC0
:1011000081F101F01F0106FA01F10842E4D12078D3
:10111000DFF8D08280074FF000094FF002075BD55F
:1011200068684FF0F80B10F00C0F07D06868C0F338
:10113000810002281CD16868C00319D497FAA7F06F
:10114000B0FA80F040F02000400902D0286801E0A9
:101150008BE0686A97FAA7F1B1FA81F101F01F01FB
:1011600006FA01F108422CD0206901287DD128E03F
:10117000206990B396FAA6F0B0FA80F048F82060A3
:10118000FFF7C2FA824607E011E100BFFFF7BCFAA1
:10119000A0EB0A00022884D897FAA7F0B0FA80F0F2
:1011A00040F02000400901D0286800E0686A97FA02
:1011B000A7F1B1FA81F101F01F0106FA01F108422D
:1011C000E4D028689BFAABF26169B2FA82F220F0AF
:1011D000F80091400843286025E0FFE796FAA6F161
:1011E000B1FA81F148F82190FFF78EFA824605E0C6
:1011F000FFF78AFAA0EB0A000228CCD897FAA7F0EA
:10120000B0FA80F040F02000400901D0286800E0EA
:10121000686A97FAA7F1B1FA81F101F01F0106FAA5
:1012200001F10842E4D1207800076ED5A069B8B377
:1012300096FAA6F0B0FA80F008EB8000C0F880645F
:10124000FFF762FA824605E0FFF75EFAA0EB0A00BC
:101250000228A0D897FAA7F0B0FA80F040F060001A
:10126000B6EB501F02D128680CE062E197FAA7F0B4
:10127000B0FA80F040F06000B7EB501F01D1286A4F
:1012800000E0686A97FAA7F1B1FA81F101F01F0155
:1012900006FA01F21042D7D00120FFF741F934E0FD
:1012A000FFE796FAA6F1B1FA81F108EB8101C1F8E6
:1012B0008094FFF729FA824606E000BFFFF724FA80
:1012C000A0EB0A00022872D897FAA7F0B0FA80F0D3
:1012D00040F06000B6EB501F01D128680BE097FA90
:1012E000A7F0B0FA80F040F06000B7EB501F01D1DA
:1012F000286A00E0686A97FAA7F1B1FA81F101F073
:101300001F0106FA01F21042D8D12078400765D5B6
:10131000E86940F08050E861E869DFF8CCB000F09F
:1013200080500090DBF8001041F48071CBF8001081
:10133000FFF7EAF9824605E0FFF7E6F9A0EB0A00BD
:10134000642834D8DBF80000C005F5D5E068012832
:101350000AD008B1052813D0286A20F001002862BD
:10136000286A20F0040002E0286A40F001002862A8
:10137000E06841F2883B90B3FFF7C6F982460BE084
:10138000286A40F004002862EEE700BFFFF7BCF9CE
:10139000A0EB0A0159450AD897FAA7F0B0FA80F0F5
:1013A00040F04000B6EB501F02D128680CE0A3E0EB
:1013B00097FAA7F0B0FA80F040F04000B7EB501F6A
:1013C00001D1286A00E0686A97FAA7F1B1FA81F1C1
:1013D00001F01F0206FA02F10842D7D031E005E021
:1013E000001002400000424200700040FFF78CF9FC
:1013F000824605E0FFF788F9A0EB0A0159457BD842
:1014000097FAA7F0B0FA80F040F04000B6EB501F1A
:1014100001D128680BE097FAA7F0B0FA80F040F00D
:101420004000B7EB501F01D1286A00E0686A97FAC4
:10143000A7F1B1FA81F101F01F0206FA02F10842A8
:10144000D8D1E06980B36968C1F38101022970D005
:101450004FF080714F000228484609D091FAA1F15F
:10146000B1FA81F148F82100FFF74EF9044669E02E
:101470008A4691FAA1F1B1FA81F1C14648F82100FA
:10148000FFF742F9804605E0FFF73EF9A0EB0800C0
:10149000022854D897FAA7F0B0FA80F040F0200064
:1014A000400902D0286801E061E0686A97FAA7F174
:1014B000B1FA81F101F01F0106FA01F10842E3D10E
:1014C000206AB0F5803F05D16868A16820F400303B
:1014D00008436860D4E908010843696821F474117D
:1014E000084368609AFAAAF0B0FA80F049F82060E0
:1014F000FFF70AF9044606E021E000BFFFF704F910
:10150000001B02281BD897FAA7F0B0FA80F040F031
:101510002000400901D0286800E0686A97FAA7F126
:10152000B1FA81F101F01F0106FA01F10842E5D09C
:101530001DE01EE0FFF7E8F8001B022802D9032097
:10154000BDE8F88F97FAA7F0B0FA80F040F02000DD
:10155000400901D0286800E0686A97FAA7F1B1FA5B
:1015600081F101F01F0106FA01F10842E2D10020E9
:10157000E6E70120E4E710B5401EB0F1807F01D31B
:10158000012010BD4FF0E02460610F21601700F0D2
:101590006BF80020A06107202061002010BDFEE74D
:1015A000F0B500230A24302537261F4611E000BF7E
:1015B000B4EB107F02D905EB107C01E006EB107C48
:1015C00001F813C001EB430C00015B1C8CF80170A7
:1015D000DBB29342ECD3F0BD70B51F4886B0816991
:1015E00041F004018161816901F004010491816984
:1015F00041F010018161816901F01001049181695C
:1016000041F0080181618069144D00F008004FF439
:1016100000540490002221462846FFF76FF8104E30
:10162000012211463046FFF769F800940124019425
:10163000694628460394FEF77FFF1120CDE900405C
:10164000694630460394FEF777FF01221146304683
:10165000FFF754F806B070BD0010024000100140C2
:10166000000C0140FEE770470907090E002806DA62
:1016700000F00F0000F1E02080F8141D704700F129
:10168000E02080F8001470472DE9FC5F4FF000085F
:101690000446ADF80480ADF8008048F60F7B4FF0AB
:1016A00002094FF4806692E1BDF8041011F00F07B3
:1016B0002BD030F82710ADF80010BDF80010090449
:1016C00078D530F8272040F68F710A4020F827207F
:1016D00004EB471595F8120205F5027500282068FD
:1016E00069D0297830F8212052047DD5B0F85030E7
:1016F00009EBC101194406EB4101415AC1F309014B
:101700005FEA010A71D0EA88D0E0BDF80410C9068A
:101710002AD4018801EA0B010180206804F1280520
:10172000B0F850202B7809EBC301114406EB4101BE
:10173000405AC0F309006064E16B0844E063002193
:101740002046FFF76CF894F824000028ABD0A86975
:101750000028A8D194F82400216840F08000A1F866
:101760004C0084F8248032E1018804F50275ADF85C
:101770000010BDF8001009051ED5B0F850302978CA
:10178000062202EBC101194406EB4101405A04F55F
:101790007B71C0F30903EB61AA88206801F0CAFAE3
:1017A0002068018840F68F72114001802046FFF7C3
:1017B0005AFA0CE1A0E055E0BDF800100904D2D5BA
:1017C000028840F68F710A4002802068B0F85030DD
:1017D0002978062202EBC101194406EB4101405A67
:1017E00083059B0DEB6101E051E063E008D0AA881E
:1017F0006969206801F09EFAE969686908446861CE
:1018000000212046FFF712F82068B0F85010891D1B
:1018100006EB4101014428693E280CD9C0F34F1260
:10182000C00601D1521E92B24FF6FF7000EA82202C
:1018300040F4004009E0C0F34F02C00701D0521C41
:1018400092B24FF6FF7000EA822008602168088893
:101850004BF68F72104080F4405048F280021043E3
:101860000880B4E0B0F850202B78062101EBC301CA
:10187000114406EB4101415AC1F309015FEA010A33
:1018800024D0AA885346696901F054FA1EE0B0F8E2
:101890005020062303EBC101114406EB4101415ADC
:1018A000C1F309015FEA010A04D02A895346696934
:1018B00001F040FA2978206830F8213048F68F721C
:1018C000134048F2C002134320F82130E96901EBCC
:1018D0000A00E861696901EB0A026A61AB6913B148
:1018E0002869504504D929782046FEF79FFF03E078
:1018F00029782046FFF710F8BDF80000000666D5ED
:10190000206804EB471530F8271001EA0B0120F896
:10191000271095F8320028350028206812D0297841
:1019200030F82120B0F8503052061ED509EBC10125
:10193000194406EB4101405A83059B0DEB6124D00D
:10194000EA881EE0B0F850302A7809EBC201194449
:1019500006EB4101405A83059B0DEB6121D0AA881B
:101960006969206801F0FDF91BE0062202EBC10164
:10197000194406EB4101405A83059B0DEB6104D0ED
:101980002A896969206801F0ECF92978206830F823
:10199000212048F68F731A404CF280031A4320F836
:1019A00021202068B0F850202B7809EBC3011144A6
:1019B00006EB4101405AC0F30900E86169690A1861
:1019C0006A612978AB69204663B1FEF7F0FF2068B1
:1019D000B0F84410ADF8041009043FF565AE0020DE
:1019E000BDE8FC9FFEF71BFFF1E7704716498A69C7
:1019F00042F480528A614A6942F001024A61134905
:101A00000A68C2F313020A600A6842F430020A60EC
:101A10000A6842F080620A600A6842F030420A6056
:101A20004FF4417141EAC00109480160416841F049
:101A300002014160416841F001014160016841F0EB
:101A400040010160704700000010024000080140A2
:101A50000030014010B5204C6068D0B14100FF2239
:101A60001E48FEF771FB1D49227980311B4801F0A9
:101A70003DFA60684FF6FF7101EA400217491848C5
:101A800000F08EF9164800F0CBF9154800F066F921
:101A90001AE0A168C1B1208848B18AB20F49401E3E
:101AA0002080803101F5806000F020F80CE0E068D3
:101AB00050B182B20B4808440849803100F016F852
:101AC0000020A060062060600122BDE810405103A4
:101AD0000548FEF713BE000038000020400B002030
:101AE0008C010020C00F00200010014030B5134BC6
:101AF000DC6924F00104DC611C6B24F001041C632C
:101B00000F4C5C6299621A624FF4C171D961D96954
:101B100041F00101D961202159604FF0E025C90150
:101B2000C5F800119C63D8635A634FF4C8701863FA
:101B3000186B40F00100186330BD00000000024047
:101B40000C3001407047FEF7E5BD30B593B014216D
:101B50000AA8FEF700FB28216846FEF7FCFA0024DD
:101B60000F94012011940090022510941294000407
:101B70000795CDE901044FF4E011CDE9080168466D
:101B8000FFF73AFA90B910200F9012940FA8FFF7C0
:101B90008FF80F20CDE90A056802CDE90C4002213B
:101BA0000AA80E94FFF71AF9002801D0FEF7AEFC40
:101BB00013B030BD0D48016841F00101016041687A
:101BC0000B4A1140416001680A4A114001600168F6
:101BD00021F480210160416821F4FE0141604FF44D
:101BE0001F0181600449C003086070470010024073
:101BF0000000FFF8FFFFF6FE08ED00E070477047B9
:101C0000D0F8180220B10021C0F81412084670471D
:101C10000220704770B50546D0F8184200F0ACFAC3
:101C2000C4F80C02D5F8180248B1D5F81C12D4F843
:101C30000402CA6804F503719047002070BD0220B9
:101C400070BD70B504460025812100F004FA012121
:101C5000204600F000FA8221204600F0FCF9D4F87A
:101C6000180250B1D4F81C0204F50674406880478D
:101C7000206800F041FD00202060284670BD10B5AE
:101C8000D0E9864159B194F80002FF2807D08B684B
:101C900094F8012221469847FF2084F80002002092
:101CA00010BD00000A210180004870477C00002020
:101CB0004321018000487047CC000020432101806F
:101CC0000048704788000020432101800048704789
:101CD000100100202DE9F0410446007C00254FF45E
:101CE000007670B3402302228121204600F092FA50
:101CF000402302220121204600F08CFA082303220F
:101D00008221204600F086FA4FF4077000F0F6FCBE
:101D1000C4F81802F0B10746D4F81C0200688047E6
:101D20000020C7F81402C7F81802207CD7F8042254
:101D300090B140230121204600F076FA2846BDE804
:101D4000F081FFE7334602228121204600F062FA4B
:101D50003346CEE70125F1E73346EBE710B5D0F87F
:101D6000181269B1027C002AD1F8042205D0402360
:101D7000012100F059FA002010BD4FF40073F7E77D
:101D8000022010BD02460220002902D00020C2F825
:101D90001C127047D0F81802C0F8041200207047D7
:101DA000D0F81802C0F81022C0F8081200207047BE
:101DB00070B50646D0F8185208780C4610F060014D
:101DC00021D0202927D1E288AAB10006607807D562
:101DD000D6F81C128B6829469847E288294617E0F6
:101DE00085F80002A07985F80102E288294630468C
:101DF00000F050F80FE0D6F81C12607800228B68D3
:101E00002146984707E060780A2804D10349012257
:101E1000304600F059F8002070BD00007800002026
:101E200010B5D0F8181289B1D1F814220AB10120E6
:101E300010BD0122C1F81422B1F8102293B2D1F8DA
:101E40000822812100F076FA002010BD022010BD8A
:101E500010B5D0F8142252689047002010BD1346E8
:101E600010B50A46002100F0DFF9002010BD13462E
:101E700010B50A46002100F05DFA002010BD10B533
:101E80000446802100F03FFA2046BDE810400021C2
:101E900000F039BA10B50323C0F80821C0F8F431B6
:101EA000C0F80C2113460A46002100F0BDF90020BD
:101EB00010BD10B505210023C0F8F4111A461946CB
:101EC00000F0B2F9002010BD10B502238261C0F805
:101ED000F431C26113460A46002100F02BFA0020BB
:101EE00010BD10B504210023C0F8F4111A4619469C
:101EF00000F020FA002010BDF8B5044648880D46D1
:101F0000010A08294BD2DFE801F04A0409174A4ABE
:101F10004048D4F81012207C0A6832E0207C022667
:101F20000028D4F8140205D0C16A684688470146E3
:101F3000467041E0816AF8E7C0B206282FD2DFE898
:101F400000F003080D12171CD4F81012207C4A6808
:101F500017E0D4F81012207C8A6812E0D4F810122E
:101F6000207CCA680DE0D4F81012207C0A6908E0D1
:101F7000D4F81012207C4A6903E0D4F81012207CB7
:101F80008A6969469047014616E0207C38B9D4F842
:101F90001402416B68468847F5E7207C20B129464A
:101FA0002046FFF76CFFF8BDD4F81402016B6846B9
:101FB0008847014607204870BDF800000028F2D08D
:101FC000EA88002AEFD0824200D90246ADF800200C
:101FD0002046FFF779FFF8BD70B5002300281DD01B
:101FE0000446002502E06D1CEDB2641C2678002E2C
:101FF000F9D1022404EB45041480CC545B1C032269
:10200000CA5400245B1C06E0CA545B1CDAB28C5430
:10201000521CD3B2401C0278002AF5D170BD10B515
:1020200080B1D0F8143213B10023C0F8143209B1D2
:10203000C0F81012012180F8FC11027000F0A0F825
:10204000002010BD022010BD10B5D0F82002FEF710
:1020500015FC002010BD10B5D0F82002FEF7EEFBF5
:10206000002010BD2DE9F0411746044641B1D4F8D7
:10207000140242698AB394F8FC01032842D043E079
:10208000D4F8F411002504F11400022933D1D0E969
:1020900002639E4207D9F31A83609AB239462046FA
:1020A000FFF7E5FE12E04068B0FBF3F103FB11011E
:1020B000A1B9984212D3D4F8F81188420ED2002266
:1020C00011462046FFF7D3FEC4F8F85100231A4604
:1020D0001946204600F0A8F80DE012E0D4F81402EA
:1020E000C16829B194F8FC01032801D12046884732
:1020F0002046FFF7DEFE94F80002012804D184F8A0
:10210000005201E0204690470020BDE8F08170B504
:102110001546044641B1D4F8140282693AB394F8E2
:10212000FC01032824D025E0D4F8F41104F58270D2
:1021300003291FD1D0E902218A420BD9531A8360A7
:102140000846834200D303469AB229462046FFF749
:1021500086FE0FE0D4F81402016929B194F8FC015D
:10216000032801D1204688472046FFF7BAFE01E048
:1021700020469047002070BDD0F82002FEF7A2BB99
:1021800010B504461B481A4902220160082141602B
:102190000021C0E90312C0F81C4482608161C4F8C8
:1021A000200204F50874FEF7A7FC00224023114624
:1021B0002068FEF719FB8023002219462068FEF7ED
:1021C00013FBC023002281212068FEF70DFB4FF492
:1021D0008873002201212068FEF706FB4FF480730C
:1021E000002282212068FEF7FFFA002010BD0000C7
:1021F000005C0040E00500200A06D0F8200201F053
:102200007F0100EB411002D590F82A00704790F84A
:102210000A02704710B51C461346D0F82002224629
:10222000FEF758FB002010BD10B5D0F82002FEF7D5
:1022300073FB002010BD70B50022044640231146F8
:10224000FFF7E8FF40252B46002280212046C4F8F6
:102250001051FFF7DFFF0120256284F8FC01D4F85C
:10226000180228B1D4F81402217942682046904718
:10227000002070BD90F8FD1180F8FC11002070471F
:1022800010B590F8FC11032904D1D0F81412C969D3
:1022900001B18847002010BD01740020704710B5BF
:1022A000D0F82002FEF7CBFC002010BD70B504462C
:1022B00000F50270054600F044F80120C4F8F4016E
:1022C000B4F80E02C4F8F80194F8080210F01F01E7
:1022D0000AD001290DD0022910D000F0800120463B
:1022E00000F011F8002070BD2946204600F08FF85C
:1022F000F8E72946204600F071F9F3E72946204621
:1023000000F0FEF8EEE710B5D0F82002FEF724FB4F
:10231000002010BD10B5D0F82002FEF7ABFC002065
:1023200010BD90F8FC1180F8FD11042180F8FC111B
:102330000020704710B5D0F82002FEF738FB0020CF
:1023400010BD0A7802704A7842708A78CB7802EB26
:10235000032242800A794B7902EB032282808A7938
:10236000C97902EB0121C18070470246002011B1FA
:10237000C2F8141270470220704710B5D0F814222A
:1023800002241AB11268904700B90024204610BDFB
:1023900070B50E461A4D897804462970012928D84F
:1023A00094F8FC01022802D0032822D105E099B15B
:1023B0000320616084F8FC0109E091B16068884203
:1023C0000AD0C1B22046FFF743FD2978616020465C
:1023D000FFF7D3FF02280CD02046BDE87040FFF77E
:1023E00080BD022084F8FC0120466160FFF730FDCB
:1023F000F2E731462046BDE87040FFF740BD0000DF
:102400007400002010B5FFF785FF002010BD2DE9F6
:10241000F04100264B78012532460A2B43D2DFE8F3
:1024200003F03C584251420805422A27FFF764FD59
:1024300063E004468888C8B9C888B8B9887800F0CD
:102440007F0794F8FC01032810D084F8FE71394608
:102450002046FFF724FF2046FFF743FD1FB102206F
:1024600084F8FC0149E084F8FC5146E020461AE07B
:10247000FFF78EFF41E0CB88012B14D190F8FC319F
:10248000022B02D0032B0ED104E08260012200F166
:10249000080114E00122011D11E090F8FC21022A3C
:1024A00004D0032A02D0FFF7EAFC26E0C560D0F88A
:1024B000041209B10321C160022200F10C01FFF7EF
:1024C00003FD1AE004464888012816D1C4F80452D6
:1024D0000BE0044690F8FC01022801D00328C5D186
:1024E0004888012809D1C4F80422D4F8140282686B
:1024F000204690472046FFF7F4FC3046BDE8F081C7
:1025000070B50D460446287800260979C0F34110BD
:10251000012806D06878A0B301281FD003283FD136
:1025200007E0D4F81402294682682046904700202C
:1025300070BD94F8FC01022817D003282CD16888BC
:1025400028B921B1802902D02046FFF7DCFED4F85B
:102550001402294682682046904713E094F8FC0153
:10256000022802D0032817D103E0C9B180291BD16A
:1025700016E06888A0B9480604D02046FFF764FD3D
:10258000E5E703E02046FFF7ACFC09E094F8FC0126
:10259000022807D003280BD029462046FFF76FFCFE
:1025A000304670BD4806FBD02046FFF7ACFEF7E78B
:1025B000080601F07F0004EB001501D5143501E099
:1025C00005F582752046FFF717FE00B1012028604F
:1025D000022229462046FFF777FCE1E770B5054661
:1025E00090F8FC010C4603280DD1207901280AD867
:1025F000D5F81402826828469047E08830B928460A
:10260000FFF76FFC02E02846FFF739FC002070BDA1
:1026100010B50A46024903A0FFF7DEFC004810BDD2
:10262000000A002056435020436F6E666967000021
:102630001220088000487047962F000810B50A46FF
:10264000024903A0FFF7C8FC004810BD000A0020A3
:1026500056435020496E74657266616365000000E0
:102660000420088000487047922F000810B50A46E1
:10267000024903A0FFF7B0FC004810BD000A00208B
:1026800053544D6963726F656C656374726F6E69E4
:102690006373000010B50A46024903A0FFF79CFCD3
:1026A000004810BD000A002055534220746F20538B
:1026B000504920436F6E76657274657200000000A9
:1026C00010B51A2008800A480168001D0468001D22
:1026D0000068081809D008220649FEF761FF05497D
:1026E000042210312046FEF75BFF0248801E10BD19
:1026F000E8F7FF1F1E0000207047000000487047E9
:10270000B00300202DE9F047CC780A7848F68F1303
:1027100034B1012C6DD0022C08D0032C13D10BE066
:1027200030F822401C4044F400730AE030F82240A4
:102730001C4020F8224006E030F822401C4044F4BF
:10274000C06320F822300C7830F8245048F68F729D
:10275000154048F280031D43254320F824508D7A0C
:1027600048F6BF7904274BF68F7A48F2C0044CF242
:102770008006EDB30D7830F825C048F280180CEAD9
:10278000020C4CEA080C20F825C0CD88B0F850C0E7
:1027900025F0010591F800800CEBC80C00EB4C0C07
:1027A000CCF800540D89B0F850C025F0010591F81F
:1027B000008007EBC807674400EB4707C7F80054E1
:1027C0004D78002D0D7830F825704FEA47477DD0C1
:1027D000002F05DA30F825701740374320F82570B0
:1027E0000D7830F825707F0608D530F8257001E0A7
:1027F00024E01DE01740274320F825700C7830F8BE
:1028000024501540354320F824500C7830F824200B
:1028100002EA09021A4320F824200A7830F822102C
:1028200001EA0A01194320F822100020BDE8F087D0
:1028300030F822401C4044F4806382E74D78F5B1C3
:102840008D88B0F8506025F001050F7806EBC706BB
:1028500000EB4606C6F800540D7830F82560760681
:1028600005D530F825601640264320F825600A7803
:1028700030F8221001EA090181F02001D2E78C88AA
:10288000B0F8505024F0010491F800C007EBCC07D9
:102890003D4400EB4505C5F80044B0F850400D78C4
:1028A000062707EBC5052C4400EB44070C694FF6DF
:1028B000FF7C07F580673E2C0CD9C4F34F15E40666
:1028C00001D16D1EADB20CEA852400E01EE044F497
:1028D000004407E0C4F34F05E40701D06D1CADB21E
:1028E0000CEA85243C600C7830F824506D0405D542
:1028F00030F824501540354320F824500A7830F839
:10290000221001EA0A0181F440518BE7002F05DA19
:1029100030F825701740374320F825700D7830F8CF
:102920002560760605D530F825601640264320F848
:1029300025600E7830F826501540254320F82650A3
:102940000C7830F8242002EA0A0282F440521A433A
:1029500020F824200A7830F8221001EA090161E702
:10296000002070472DE9F04391F80A8091F801C0EA
:102970000A7848F6BF774BF68F7948F2800348F221
:10298000C0054CF2800648F68F74B8F1000F2ED0C7
:10299000BCF1000F30F822C04FEA4C4C4ED0BCF1D5
:1029A000000F07DA30F822C00CEA040C4CEA060CDF
:1029B00020F822C00A7830F822C05FEA4C6C07D5B4
:1029C00030F822C00CEA040C4CEA050C20F822C0B6
:1029D0000A7830F822502540354320F822500C78F0
:1029E00030F824203A401A4320F824201BE0BCF1A0
:1029F000000F0ED030F82260760605D530F8226040
:102A000026402E4320F822600A7830F82210394000
:102A10000EE030F822506D0405D530F822502540E4
:102A2000354320F822500A7830F8221001EA0901D3
:102A3000194320F822100020BDE8F083BCF1000FFC
:102A400007DA30F822C00CEA040C4CEA060C20F835
:102A500022C00A7830F82260760605D530F8226068
:102A600026402E4320F822600E7830F8262022409F
:102A70002A4320F826200C7830F8242002EA0902A4
:102A80001A4320F82420BFE7002070470020704739
:102A9000012120F8401F0021018081800182084629
:102AA000704730F8401F21F43D41018000207047FD
:102AB0000020704730B54D780A78002D48F68F74A5
:102AC00030F8225048F2800312D06D0607D530F856
:102AD0002250254048F2C004254320F822500A78AD
:102AE00030F8221048F6BF74214081F0300111E027
:102AF0006D0407D530F8225025404CF28004254360
:102B000020F822500A7830F822104BF68F742140BA
:102B100081F44051194320F82210002030BD10B537
:102B20000A7848F2800352B14978002930F822101F
:102B300010D048F6BF74214081F010010FE00188E9
:102B40004BF6BF72114081F4805181F0100119439E
:102B5000018007E04BF68F74214081F480511943C6
:102B600020F82210002010BD2DE9F0410D46064648
:102B7000896995F801C00023AA7A022728690C46C2
:102B800048F28008BCF1010F05D0814252D90446B9
:102B9000081AA8614FE0814203D90446081AA861C7
:102BA00000E0AB617AB1287836F820104906B6F813
:102BB000501007EBC000084406EB4000C0F800448A
:102BC00012D52A8911E0A3B2AA883046696900F0BB
:102BD000C8F8B6F85000297807EBC101084406EBA5
:102BE0004000C0F800441CE0EA88A3B2304669699E
:102BF00000F0B7F8687848F68F7110B1012807D057
:102C00000FE0287836F820200A4048F2C00105E09D
:102C1000287836F820200A404CF280010A4326F832
:102C20002020297836F8210048F6BF72104080F045
:102C3000300067E0AB6106234FF6FF701AB1BCF1BC
:102C4000000F1BD056E0B6F850102A783E2C03EB4C
:102C5000C202114406EB410202F5806239D9C4F385
:102C60004F11E30632D000BF00EA812040F400405B
:102C700002E000BF00EA812010603BE0B6F850108F
:102C80002A783E2C07EBC202114406EB410202F502
:102C900080620BD9C4F34F115FEAC46C01D1491EA5
:102CA00089B200EA812141F4004108E0C4F34F01F8
:102CB0005FEAC47C01D0491C89B200EA812111601D
:102CC00069780029BFD001290AD013E0491E89B2D2
:102CD000CAE7C4F34F01E307CCD0491C89B2C9E766
:102CE000B6F85000297807EBC101084406EB400014
:102CF000C0F80044297836F821004BF68F72104056
:102D000080F4405040EA080026F821000020BDE889
:102D1000F08130F8401F41F43D41018000207047B0
:102D20000148FDF763BE0000E0050020B0F8440054
:102D3000704700005B1C00EB42005B0800F5806000
:102D400006D000BF30F8042B21F8022B5B1EF9D10E
:102D500070470020704711B98021A0F84C10002066
:102D6000704710B55B1C00EB42005B0800F580600B
:102D700009D011F8012B5B1E11F8014B42EA042225
:102D800020F8042BF5D110BDFEE702E008C8121FA1
:102D900008C1002AFAD170477047002001E001C144
:102DA000121F002AFBD17047FDF7BCFCFEF7CDFED9
:102DB000FEF712FC4FF400510948FDF79BFC00227E
:102DC00008490948FFF72BF908490748FFF7CDFAEA
:102DD00007490548FEF7D6FF0348FFF713FBFEE758
:102DE00000100140000000208C0100205401002050
:102DF0005C000020F0B501EBD00400F00706257858
:102E0000802323FA06F675402570441C254601EB05
:102E1000D40405F00707267823FA07F56E402670DC
:102E2000EAB1821C144601EBD20204F007041578C3
:102E300023FA04F465401570C21C01EBD20402F0C1
:102E40000702257823FA02F25540021D01EBD20158
:102E500025700C7802F00702D3405C400C70C01D56
:102E6000F0BD2DE9F04715000F4682464FF00106F0
:102E70004FF0000833D0FF2240F232215046FDF7D8
:102E800063F90024002D2AD9A5F1010902E00CB153
:102E90004C4501D1012200E0002251463046FFF7A7
:102EA000A9FFB8F1000F03D04C4501D03F300BE033
:102EB00080263A5D51463240FFF79CFF7608F8D1F4
:102EC00000225146FFF796FF0646032C04D1F878FE
:102ED000000601D54FF00108641CAC42D7D3012095
:102EE000F61D00EBD60080B2BDE8F0872DE9F04773
:102EF0000026814692464FF400780E24701E32461A
:102F00004546802301EBD20702F0070C3F7823FAF5
:102F10000CFC17EA0C0F35D102F10E04B4F58C5FEE
:102F200033D8D21C01EBD20702F0070C3F7823FA0A
:102F30000CFC17EA0C0F0DD12E43521C01EBD207EB
:102F400002F0070C3F7823FA0CFC17EA0C0F01D1B2
:102F5000A242F2D36D0815D1022505EA162506F026
:102F600001073D4389F8005009F10105760805F88D
:102F7000016BA946AAF10105EDB25FEA050A06D088
:102F800045460026521CA242BCD3BDE8F087002073
:102F9000FBE704030904120100020000004083045F
:102FA0004057000201020301000000000000000081
:102FB0000102030406070809D82F000800000020BA
:102FC0008C01000090010008943000088C01002062
:102FD000341600009A2D00081331261B0861041ACC
:102FE0006D041A95041AC1041A11041A3D04032A27
:102FF0001A03145A06021405FF5A15B280FFFF3354
:10300000C20112081B410248190413E9011B089967
:10301000085184A24A04130A0632022A402E1409D7
:1030200002431302011CC032091F1B01020B1305CE
:1030300024161001052401100901042402020524AC
:103040000617010705820308151009040133020A57
:103050001D07050102432C070581070938442A4052
:10306000072A8107112B0907440A2204440A16FF84
:103070004413D51C1B0843044BB11DF41A7F0C1AD2
:1030800001041A1504C12ABD2419041AC9041AA579
:043090000400000038
:04000005080000ED02
:00000001FF
